{
  "contractName": "Allowance",
  "abi": [
    {
      "constant": true,
      "inputs": [],
      "name": "beneficiary",
      "outputs": [
        {
          "name": "",
          "type": "address"
        }
      ],
      "payable": false,
      "stateMutability": "view",
      "type": "function"
    },
    {
      "constant": false,
      "inputs": [],
      "name": "kill",
      "outputs": [],
      "payable": false,
      "stateMutability": "nonpayable",
      "type": "function"
    },
    {
      "constant": false,
      "inputs": [],
      "name": "freeze",
      "outputs": [],
      "payable": false,
      "stateMutability": "nonpayable",
      "type": "function"
    },
    {
      "constant": false,
      "inputs": [
        {
          "name": "_amount",
          "type": "uint256"
        }
      ],
      "name": "withdrawOwner",
      "outputs": [],
      "payable": false,
      "stateMutability": "nonpayable",
      "type": "function"
    },
    {
      "constant": true,
      "inputs": [],
      "name": "owner",
      "outputs": [
        {
          "name": "",
          "type": "address"
        }
      ],
      "payable": false,
      "stateMutability": "view",
      "type": "function"
    },
    {
      "constant": false,
      "inputs": [],
      "name": "withdrawBeneficiary",
      "outputs": [],
      "payable": false,
      "stateMutability": "nonpayable",
      "type": "function"
    },
    {
      "constant": false,
      "inputs": [],
      "name": "addFunds",
      "outputs": [
        {
          "name": "",
          "type": "bool"
        }
      ],
      "payable": true,
      "stateMutability": "payable",
      "type": "function"
    },
    {
      "constant": true,
      "inputs": [],
      "name": "testContract",
      "outputs": [
        {
          "name": "",
          "type": "string"
        }
      ],
      "payable": false,
      "stateMutability": "pure",
      "type": "function"
    },
    {
      "inputs": [
        {
          "name": "_beneficiary",
          "type": "address"
        }
      ],
      "payable": true,
      "stateMutability": "payable",
      "type": "constructor"
    }
  ],
  "bytecode": "0x606060405260405160208061068083398101604052808051906020019091905050336000806101000a81548173ffffffffffffffffffffffffffffffffffffffff021916908373ffffffffffffffffffffffffffffffffffffffff16021790555080600160006101000a81548173ffffffffffffffffffffffffffffffffffffffff021916908373ffffffffffffffffffffffffffffffffffffffff1602179055504260028190555042600381905550506105c1806100bf6000396000f30060606040526004361061008e576000357c0100000000000000000000000000000000000000000000000000000000900463ffffffff16806338af3eed1461009357806341c0e1b5146100e857806362a5af3b146100fd5780636ef98b21146101125780638da5cb5b1461013557806398a34fef1461018a578063a26759cb1461019f578063c36631b4146101c1575b600080fd5b341561009e57600080fd5b6100a661024f565b604051808273ffffffffffffffffffffffffffffffffffffffff1673ffffffffffffffffffffffffffffffffffffffff16815260200191505060405180910390f35b34156100f357600080fd5b6100fb610275565b005b341561010857600080fd5b6101106102d2565b005b341561011d57600080fd5b610133600480803590602001909190505061032f565b005b341561014057600080fd5b6101486103ee565b604051808273ffffffffffffffffffffffffffffffffffffffff1673ffffffffffffffffffffffffffffffffffffffff16815260200191505060405180910390f35b341561019557600080fd5b61019d610413565b005b6101a76104da565b604051808215151515815260200191505060405180910390f35b34156101cc57600080fd5b6101d461053e565b6040518080602001828103825283818151815260200191508051906020019080838360005b838110156102145780820151818401526020810190506101f9565b50505050905090810190601f1680156102415780820380516001836020036101000a031916815260200191505b509250505060405180910390f35b600160009054906101000a900473ffffffffffffffffffffffffffffffffffffffff1681565b6000809054906101000a900473ffffffffffffffffffffffffffffffffffffffff1673ffffffffffffffffffffffffffffffffffffffff163373ffffffffffffffffffffffffffffffffffffffff161415156102d057600080fd5b565b6000809054906101000a900473ffffffffffffffffffffffffffffffffffffffff1673ffffffffffffffffffffffffffffffffffffffff163373ffffffffffffffffffffffffffffffffffffffff1614151561032d57600080fd5b565b6000809054906101000a900473ffffffffffffffffffffffffffffffffffffffff1673ffffffffffffffffffffffffffffffffffffffff163373ffffffffffffffffffffffffffffffffffffffff1614151561038a57600080fd5b6000809054906101000a900473ffffffffffffffffffffffffffffffffffffffff1673ffffffffffffffffffffffffffffffffffffffff166108fc829081150290604051600060405180830381858888f1935050505015156103eb57600080fd5b50565b6000809054906101000a900473ffffffffffffffffffffffffffffffffffffffff1681565b600160009054906101000a900473ffffffffffffffffffffffffffffffffffffffff1673ffffffffffffffffffffffffffffffffffffffff163373ffffffffffffffffffffffffffffffffffffffff1614151561046f57600080fd5b6000809054906101000a900473ffffffffffffffffffffffffffffffffffffffff1673ffffffffffffffffffffffffffffffffffffffff166108fc67016345785d8a00009081150290604051600060405180830381858888f1935050505015156104d857600080fd5b565b60008060009054906101000a900473ffffffffffffffffffffffffffffffffffffffff1673ffffffffffffffffffffffffffffffffffffffff163373ffffffffffffffffffffffffffffffffffffffff1614151561053757600080fd5b6001905090565b610546610581565b6040805190810160405280601381526020017f4d6574686f642063616c6c2074657374206f6b00000000000000000000000000815250905090565b6020604051908101604052806000815250905600a165627a7a723058207c9569d9e50e68e8d3d35116ca402aca854df3928184c9a3eeffe6394d2feae00029",
  "source": "pragma solidity ^0.4.0;\n\ncontract Allowance {\n\n    address public owner;\n    address public beneficiary;\n    uint private contractStartDate;\n    uint private contractLastWithdrawal;\n    uint constant private MAX_WITHDRAWAL_AMOUNT = 100000000000000000; // 0.1 ETH\n    uint constant private MIN_WITHDRAWAL_FREQUENCY = 7*60*60*24; // 7 dias\n\n    function Allowance(address _beneficiary) public payable {\n        owner = msg.sender;\n        beneficiary = _beneficiary;\n        contractStartDate = now;\n        contractLastWithdrawal = now;\n    }\n\n    modifier onlyOwner(){\n        require(msg.sender == owner);\n        _;\n    }\n\n    modifier onlyBeneficiary(){\n        require(msg.sender == beneficiary);\n        _;\n    }    \n    \n    function addFunds() onlyOwner payable public returns (bool) {\n        \n        return true;\n    }\n\n    function freeze() onlyOwner public {\n\n    }\n\n    function kill() onlyOwner public {\n\n    }\n\n    function withdrawOwner(uint _amount) onlyOwner public {\n        owner.transfer(_amount);\n    }\n\n    function withdrawBeneficiary() onlyBeneficiary public {\n        // Remember to zero the pending refund before\n        // sending to prevent re-entrancy attacks\n        owner.transfer(MAX_WITHDRAWAL_AMOUNT);\n    }\n\n    function setLastWithdrawalDate() private {\n        contractLastWithdrawal = now;\n    }\n\n    function testContract() public pure returns (string) {\n        return \"Method call test ok\";\n    }\n\n}",
  "sourcePath": "/home/parallels/CursoBlockchainGIT/allowance/contracts/Allowance.sol",
  "compiler": {
    "name": "solc",
    "version": "0.4.18+commit.9cf6e910.Emscripten.clang"
  },
  "schemaVersion": "1.0.1",
  "updatedAt": "2017-11-22T00:37:10.768Z"
}